:020000040800F2
:1000000050050020AD01000829250008C11D000889
:1000100025250008C50200085D2E0008000000002C
:10002000000000000000000000000000BD2B0008E0
:10003000C902000800000000B92B0008C12B00080D
:10004000C7010008C7010008C7010008C701000870
:10005000C7010008C7010008C7010008C701000860
:10006000C7010008C7010008C7010008C701000850
:10007000C7010008C7010008C7010008C701000840
:10008000C7010008C7010008C70100080000000000
:10009000000000000000000000000000C701000890
:1000A000C7010008C7010008C7010008C701000810
:1000B000C7010008C7010008C7010008C701000800
:1000C000C7010008C7010008C7010008C7010008F0
:1000D000C7010008C7010008C701000800000000B0
:1000E000C7010008C7010008C701000800000000A0
:1000F000000000000000000000000000C701000830
:1001000000000000C7010008C7010008C70100087F
:1001100000000000000000000000000000000000DF
:10012000C7010008C7010008C7010008C70100088F
:10013000C7010008000000000000000000000000EF
:10014000000000000000000000000000C7010008DF
:10015000C7010008C7010008C7010008C70100085F
:10016000C7010008C70100080000000000000000EF
:10017000000000000000000000000000000000007F
:1001800000000000C701000800000000000000009F
:10019000C7010008C7010008DFF80CD000F07AF8AA
:1001A00000480047812E000850050020064880477F
:1001B00006480047FEE7FEE7FEE7FEE7FEE7FEE74C
:1001C000FEE7FEE7FEE7FEE7692C0008990100085C
:1001D0002DE9F05F0546002092469B46884606467C
:1001E000814640241BE0284641464746224600F00F
:1001F00041F853465A46C01A914110D31146184649
:10020000224600F028F82D1A67EB01084F462246D7
:100210000120002100F01FF817EB00094E41201EBD
:10022000A4F10104DFDC484631462A464346BDE8D6
:10023000F09FD2B201E000F8012B491EFBD27047BB
:100240000022F6E710B513460A4604461946FFF7A2
:10025000F0FF204610BD202A04DB203A00FA02F10C
:10026000002070479140C2F1200320FA03F31943A4
:1002700090407047202A04DB203A21FA02F0002146
:10028000704721FA02F3D040C2F1200291400843A6
:10029000194670471CB50948009009480190054669
:1002A000009C06E0E06840F0010394E807009847EE
:1002B0001034AC42F6D3FFF773FF0000303C000867
:1002C000503C0008FEE700007047000072B600BF17
:1002D000FEE70000B0B5044600F0E6F8054640F23F
:1002E0000400C2F200000078611C18BF044400BF83
:1002F00000F0DAF8401BA042FAD3B0BD2DE9F04F70
:1003000083B000F1200200F13E4741F20005009267
:1003100007F1FF77C4F2020507224FEAB726A84289
:1003200008BF042200254FF000084FF00009042EFA
:1003300038BF4FEAB72201920AE000BF09F1010974
:1003400008F10208B9F1100F05F1040500F0A280D0
:100350000F68012202FA09FE17EA0E0AEED0D1F860
:1003600004C003220CF003077E1E02FA08F4012EDB
:100370006FEA040B12D88468CE6804EA0B0406FA0C
:1003800008F634438460446824EA0E06CCF3001473
:1003900004FA09F42643466004E000BF032F01D1AC
:1003A00003271EE0C6688C6806EA0B0604FA08F408
:1003B0002643022FC66014D16FF00302009E02EAAA
:1003C000590756F807C005F01C040F220B69A2401C
:1003D0002CEA0202A3401A43F251D1F804C00CF0F7
:1003E0000307026807FA08F302EA0B021A431CF437
:1003F000403F0260A2D0002243F644030292C4F2BE
:1004000002031A6843F6004442F480421A601A68F4
:10041000C4F2010402F480420292029A29F003021B
:100420004FF6084C2244CFF6FF7C52F80C3005F012
:100430000C070F26BE40B343019E06FA07F73B4365
:1004400042F80C30A2684B6842EA0A0743F60C4CAB
:10045000DE0258BF22EA0A07A760C4F2010CDCF8EA
:1004600000209E0242EA0A0758BF22EA0A07CCF897
:10047000007062689E0342EA0A0758BF22EA0A0730
:1004800067602268DB0342EA0A0758BF22EA0A07CC
:10049000276053E703B0BDE8F08F0000002A08BFD3
:1004A000090481617047000040F24C10C2F2000064
:1004B00000687047002804BF01207047F0B581B084
:1004C000044690F83D0028B9002084F83C002046FE
:1004D00000F05AFA242084F83D002068016821F0D9
:1004E00001010160016841F400410160016821F4EB
:1004F0000041016000F0ECFC636848F2A16CC0F2BE
:10050000010C40F60011C0F23D0163453CBF48F2CA
:100510008041C0F21E01884202D2012001B0F0BD2C
:100520004DF68361C4F21B31A0FB01122168970CC8
:10053000D1F804E04FF496762EF03F0545EA924557
:100540004D60774348F638160D6AC0F24106A7FBA6
:10055000067625F03F07634538BF960C721C3A4378
:100560000A62CA6948F2A0664CF6FF77C0F201063B
:10057000B34222EA07020BD801385B00B0FBF3F06C
:1005800001306FF31F30042898BF04201BE000BF28
:10059000A768013857B119277B43B0FBF3F001304E
:1005A0006FF31F3070B100F5804007E003EB4303A9
:1005B000B0FBF3F001306FF31F3018B100F50040CD
:1005C00001E000BF01201043C8610868D4E9072397
:1005D00020F0C000104318430860886848F2FF32DA
:1005E00004F10C0790438CCF18431043A669886030
:1005F000C86820F0FF0038433043C860086840F006
:100600000100086000202021206484F83D10206350
:1006100084F83E0001B0F0BD2DE9F04F83B01E46D6
:10062000924688460446FFF73FFF94F83D10202984
:1006300024D12168054600BF886980071AD5FFF7D5
:1006400033FF401B21681A28F6D388698007F3D549
:1006500000202021206384F83D1084F83E00216CA6
:1006600041F02001216484F83C00022003B0BDE881
:10067000F08F00BF94F83C00012803D1022003B0A2
:10068000BDE8F08F4FF0010984F83C900868C0077E
:1006900003D1086840F0010008600868002720F4D2
:1006A00000600860242084F83D000020CFF6FF7031
:1006B0002764E06208F0FE08BAF1010F88BFD14656
:1006C0004FF0A00A4FF0200B04E000BF01374F4568
:1006D00000F0A2800868002240F480700860204684
:1006E0004FF001113346009501F02EFC21680028DF
:1006F00056D1C1F81080FFF7D7FE21684B694A69CF
:1007000094F83D50A02D054605D013F0020008BF17
:1007100012F480601AD084F83DB048690A688007F6
:1007200042F400720A6045D46FF48060486100BFF3
:1007300088698007CAD5FFF7B7FE401B21681A28D1
:10074000F6D388698007F3D54AE000BFB6B100BF91
:10075000FFF7AAFE401BB04288BF84F83DA0216885
:100760004A69486994F83D30A02BD4D012F00202B7
:1007700008BF10F48060EBD0CDE700BFFFF794FE18
:1007800084F83DA021684A69486994F83D30A02B5F
:10079000C1D012F00202BED110F48060EED0BAE7F0
:1007A0000868C00544BF4FF400702064032003B004
:1007B000BDE8F08F0020029048690290886902909D
:1007C0000298886901E000BF806980071AD5FFF7A9
:1007D0006BFE411B20681A29F6D381698907F3D57E
:1007E00000202021206384F83D1084F83E00216C15
:1007F00041F02001216484F83C00012003B0BDE8F1
:10080000F08F00BF202084F83D00002084F83C00D9
:1008100003B0BDE8F08F00BF202084F83D00002029
:1008200084F83C00012003B0BDE8F08F2DE9F043CF
:1008300083B0994616460F460446FFF735FE94F8F6
:100840003D10202924D10546206800BF8169890711
:100850001AD5FFF729FE411B20681A29F6D38169B2
:100860008907F3D500202021206384F83D1084F807
:100870003E00216C41F02001216484F83C000220FC
:1008800003B0BDE8F08300BF94F83C10012903D108
:10089000022003B0BDE8F083012284F83C20036805
:1008A000DDE90B180A9ADB0703D1036843F0010363
:1008B0000360036823F400630360212084F83D0093
:1008C000402084F83E000020206462626185608DD3
:1008D000394620850020CFF6FF70E0622046324680
:1008E0004B46CDE9008501F06DFA18B1012003B047
:1008F000BDE8F083208D98B9204641462A4601F094
:10090000C5FA88B3206C0428F0D12068016841F44E
:1009100000710160012003B0BDE8F0830004EBD05A
:10092000204641462A4601F061FC0028EAD1616A6E
:100930002268084610F8013B1361238D6062581E3F
:100940002085678D013F678557697F07E6D50704D6
:10095000E4D048781061881C6062981E2085618D03
:1009600001396185DAE700BF2068016841F4007150
:100970000160202084F83D00002084F83E0084F8C7
:100980003C0003B0BDE8F0832DE9F0438BB040F2AA
:100990000044C4F202040068A4F5D831002588425E
:1009A000CDE90955CDE90755069503D00BB0BDE853
:1009B000F08300BF43F630060195C4F202063068AA
:1009C0004FF0C00840F0020030603068012700F0AE
:1009D0000200019001984FF0030901A920460595F6
:1009E000CDF80480CDE90277CDF81090FFF786FCB2
:1009F000204640210122FFF751FD2046802101229F
:100A0000FFF74CFD0520FFF765FC20464021002242
:100A1000FFF744FD204680210022FFF73FFD05201F
:100A2000FFF758FC204640210122FFF737FD204602
:100A300080210122FFF732FD0520FFF74BFC204605
:100A400040210022FFF72AFD204680210022FFF7E7
:100A500025FD0520FFF73EFC204640210122FFF73F
:100A60001DFD204680210122FFF718FD0520FFF71C
:100A700031FC204640210022FFF710FD2046802156
:100A80000022FFF70BFD0520FFF724FC2046402144
:100A90000122FFF703FD204680210122FFF7FEFC23
:100AA0000520FFF717FC204640210022FFF7F6FC47
:100AB000204680210022FFF7F1FC0520FFF70AFC09
:100AC000204640210122FFF7E9FC20468021012237
:100AD000FFF7E4FC0520FFF7FDFB20464021002244
:100AE000FFF7DCFC204680210022FFF7D7FC052021
:100AF000FFF7F0FB204640210122FFF7CFFC204604
:100B000080210122FFF7CAFC0520FFF7E3FB204606
:100B100040210022FFF7C2FC204680210022FFF77F
:100B2000BDFC0520FFF7D6FB204640210122FFF740
:100B3000B5FC204680210122FFF7B0FC0520FFF71D
:100B4000C9FB204640210022FFF7A8FC2046802157
:100B50000022FFF7A3FC0520FFF7BCFB2046402145
:100B60000122FFF79BFC204680210122FFF796FC23
:100B70000520FFF7AFFB204640210022FFF78EFC47
:100B8000204680210022FFF789FC0520FFF7A2FB09
:100B9000204640210122FFF781FC204680210122CE
:100BA000FFF77CFC0520FFF795FB20464021002243
:100BB000FFF774FC204680210022FFF76FFC052020
:100BC000FFF788FB204640210122FFF767FC204603
:100BD00080210122FFF762FC0095306807A940F0F0
:100BE00002003060306800F002000090009812208F
:100BF00081E8810204200A9006A92046CDF81880D9
:100C0000FFF77CFB0095306940F4001030613069DB
:100C100000F40010009000980BB0BDE8F0830000D5
:100C200040F2040040F24C11C2F20000C2F2000196
:100C300000780A68104408607047000080B543F6E9
:100C40000040C4F20200016841F4007101600168D3
:100C500041F480610160016841F48071016003200A
:100C600000F074F80F2000F005F800F027F80020DD
:100C700080BD000070B540F20406C2F2000640F2EA
:100C800010013278C2F200014FF47A730968B3FBA5
:100C9000F2F20446B1FBF2F1084600F04FFB0F2CD4
:100CA0004FF0010508D838B94FF0FF302146002237
:100CB000002500F01FF87460284670BD82B0002047
:100CC00043F640010190C4F202014A6842F48042B6
:100CD0004A604A6802F480420192019A00900868D2
:100CE00040F080500860086800F080500090009844
:100CF00002B0704710B54EF60C5CCEF2000CDCF87A
:100D00000030C3F3022E8EF00704042C28BF042405
:100D1000BEF103034FF0FF3E0EFA04F438BF002388
:100D2000A14399400EFA03F39A43114300F00F02D6
:100D300000F160430901043A03F56443624400286A
:100D400048BF02F10C03197010BD00004EF60C51A3
:100D5000CEF200010A684FF6FF031A4060F30A2240
:100D600042F0806040F0FD7008607047002804BFCA
:100D7000012070472DE9F04143F60808C4F202084B
:100D80000446D8F8F8030D4600F00700814207D961
:100D900088F8F853D8F8F80300F00700A84277D194
:100DA0002068810717D5410705D5D8F8001041F410
:100DB000E051C8F80010010705D5D8F8001041F43B
:100DC0006041C8F80010D8F80010A26821F0F001C6
:100DD0001143C8F80010C00740D1D8F8F80300F05C
:100DE0000700854207D288F8F853D8F8F80300F0D6
:100DF0000700A8424CD12068410707D5D8F8001059
:100E0000E26821F4E0511143C8F80010000708D54A
:100E1000D8F80000216920F4604040EAC100C8F819
:100E2000000000F07DF8D8F8001043F2A052C1F3A2
:100E30000311C0F60002515C40F2100220FA01F1E9
:100E400040F20800C2F200000068C2F20002116025
:100E5000FFF710FF0020BDE8F08100BF6068811E31
:100E6000022907D258F8081C89015CBF0120BDE89F
:100E7000F08111E0012807D158F8081C89035CBFF4
:100E80000120BDE8F08107E058F8081C890703D469
:100E90000120BDE8F08100BFD8F8001021F0030167
:100EA0000843C8F80000FFF7FFFA064641F288370A
:100EB000D8F80000616800F00C00B0EB810F8CD016
:100EC000FFF7F2FA801BB842F2D90320BDE8F081A7
:100ED00040F2100043F60801C2F20000C4F2020121
:100EE0000068096843F2B052C1F38221C0F60002E3
:100EF000515CC8407047000040F2100043F6080102
:100F0000C2F20000C4F202010068096843F2B05264
:100F1000C1F34231C0F60002515CC8407047000086
:100F200010B543F60404C4F202046168C1F3810100
:100F300042F20040C0F2F400DFE801F002040A02CD
:100F400010BD00BF41F20020C0F27A0010BD00BF0A
:100F5000216801F03F02216823684902C3F3881128
:100F600006D4A1FB00010023FFF732F907E000BF20
:100F700041F20020C0F27A004843B0FBF2F0216851
:100F80000222C1F3014102EB4101B0FBF1F010BDBF
:100F9000002804BF012070472DE9F04182B00446CB
:100FA000007843F60006C007C4F202060CD0B06811
:100FB00000F00C00042840F081803068800303D5E5
:100FC0006068002800F06881207880071BD5B06831
:100FD00010F00C0F09D0B06800F00C00082840F0A9
:100FE00087807068400200F183803068800703D5F5
:100FF000E068012840F050813068216920F0F80055
:1010000040EAC10030602078000713D42078400700
:101010002AD4A569002D00F03A81B06800F00C00D8
:10102000082840F0A580012D40F00E81012002B07B
:10103000BDE8F0816069002800F082800020C4F2E1
:1010400047200121C0F8801EFFF72EFA054600BF99
:10105000706F8007DAD4FFF727FA401B0228F7D910
:10106000032002B0BDE8F081306C5FEAC0080AD40A
:1010700000200190306C40F080503064306C00F003
:1010800080500190019847F20007C4F200073868C9
:10109000C00547D4386840F480703860FFF704FA20
:1010A000054600BF3868C0053CD4FFF7FDF9401B7A
:1010B0000228F7D9032002B0BDE8F081B06800F043
:1010C0000C00082803D1706840023FF576AF6168D4
:1010D0003068B1F5803F07D0B1F5A02F40F09A807D
:1010E00040F480203060306840F4803030609AE016
:1010F000E068002840F20000C4F247205CD00121E3
:101100000160FFF7D1F90546306880073FF574AFFD
:10111000FFF7CAF9401B0228F6D9032002B0BDE848
:10112000F08100BFA168306F012905D0052955D194
:1011300040F004003067306F40F00100306756E047
:101140000020C4F247200021C0F8801EFFF7ACF950
:10115000054600BF706F80077FF558AFFFF7A4F911
:10116000401B0228F6D9032002B0BDE8F08100BF81
:101170000027C4F2472700203866FFF795F9022DB3
:1011800005460DD13068800140F18A80FFF78CF967
:10119000401B02284FF00300F4D902B0BDE8F081F3
:1011A0003068800173D5FFF77FF9401B02284FF0AC
:1011B0000300F5D9F1E700BF00210160FFF774F9E2
:1011C000054600BF306880077FF51DAFFFF76CF95B
:1011D000401B02284FF00300F4D9DEE720F00100A5
:1011E0003067306F002920F0040030677AD0FFF7B5
:1011F0005BF9054641F28837306F800700F1848043
:10120000FFF752F9401BB842F6D9032002B0BDE8FF
:10121000F08100BF20F4803030603068002920F475
:10122000802030607AD0FFF73FF9054630688003B0
:101230003FF5CAAEFFF738F9401B6428F6D9032002
:1012400002B0BDE8F08100BF7068E16900F480027F
:101250008A4221D1216A00F03F028A421CD147F61E
:10126000C071626A0140B1EB821F15D1A16A4FF6CD
:10127000FF73C903994300F44032A1F580318A42DB
:101280000AD1E16A00F07060B0EB016F04D1002078
:1012900002B0BDE8F08100BF012002B0BDE8F081DE
:1012A00004F11C052FCD084340EA8210D9034FF604
:1012B000FF729143A1F5803140EA056008437060F8
:1012C00001203866FFF7F0F8044600BF306880015F
:1012D000DDD4FFF7E9F8001B02284FF00300F5D931
:1012E0005BE700BFFFF7E0F8054641F2883700BF33
:1012F000306F800708D5FFF7D7F8401BB8424FF092
:101300000300F5D949E700BFB8F1000F3FF581AE02
:10131000306C20F0805030647BE600BFFFF7C4F8EB
:10132000054600BF306880037FF54EAEFFF7BCF87E
:10133000401B64284FF00300F4D92EE7411E002023
:10134000B0EB116F1CBF012070474EF21002CEF2BD
:10135000000251604EF62351CEF20001F0230B70D3
:10136000072190601160704790F83C20012A4FF0EF
:10137000020241D010B580F83D200268D2F804E0A6
:10138000D2F808C00C682EF07003234340F6FF34F7
:10139000C4F20004A242536010DCB2F1804F1ED0B0
:1013A00040F20043C4F200039A4218D040F6000312
:1013B000C4F200039A4212D016E000BF40F6004388
:1013C000C4F200039A420AD044F20003C4F20103BB
:1013D0009A4204D00023C4F201039A4204D149681E
:1013E0002CF08003194391600121002280F83D1008
:1013F00080F83C20BDE8104010467047002804BF2C
:101400000120704710B5044690F83D0028B900202F
:1014100084F83C00204600F01FF8022084F83D00CC
:101420002068211D01F02AFC012084F8460084F880
:101430003E0084F83F0084F8400084F8410084F8BE
:10144000420084F8430084F8440084F8450084F89E
:101450003D00002010BD00000068B0F1804F18BFB3
:10146000704781B00020009043F64000C4F20200B3
:10147000016841F001010160006800F00100009086
:10148000009801B07047000090F83C20012A4FF00E
:1014900002026CD080B580F83D20D0F800C04FF635
:1014A0007772DCF8083023EA0202CCF808200B68D7
:1014B0004F2B29DC1F2B45DD202B46D0302B44D071
:1014C000402B40F0AF80D1F804E0C968DCF8203050
:1014D000DCF8202022F00102CCF82020DCF81820D3
:1014E00022F0F00242EA011123F00A0242EA0E025F
:1014F000CCF81810CCF82020DCF8081041F0470197
:1015000021F0300128E000BF6F2B33DDB3F5005F21
:1015100074D0B3F5805F21D0702B40F08380D1E987
:1015200001E3C968DCF8082043EA0E0322F47F4295
:1015300043EA01211143CCF80810DCF8081041F00F
:10154000770109E00BB1102B6CD1DCF8081021F009
:101550007001194341F00701CCF808100022012165
:1015600080F83D10002180F83C10BDE88040104616
:10157000704700BF502B21D0602B53D1D1F804E02D
:10158000C968DCF82030DCF8202022F01002CCF80A
:101590002020DCF8182022F4704242EA013123F0C6
:1015A000A00242EA0E12CCF81810CCF82020DCF889
:1015B000081041F0670121F01001CDE7D1F804E0F7
:1015C000C968DCF82030DCF8202022F00102CCF8D9
:1015D0002020DCF8182022F0F00242EA011123F06A
:1015E0000A0242EA0E02CCF81810CCF82020DCF8EF
:1015F000081041F0570121F02001ADE7D1E901E3E6
:10160000C968DCF8082043EA0E0322F47F4243EA6B
:1016100001211143CCF80810DCF8081041F4804196
:101620009AE700BF01229AE7002804BF0120704713
:101630002DE9F047044690F83D000D4628B90020FA
:1016400084F83C00204600F049F8022084F83D0070
:10165000206844F20702816891438160211D01F0F6
:101660000DFB20684FF6FF7881688269D0F820C0B2
:10167000D5E9003ED5E9026A43EA0109AB6922EAED
:10168000080246EA03234FF6FC46B343D5E9076751
:1016900042EA0A0229691A4342EA062242EA011191
:1016A0002CF0AA026B6942EA0E0241EA073142EAD3
:1016B0000312C0F8089081610262012084F846009C
:1016C00084F83E0084F83F0084F8420084F8430028
:1016D00084F83D000020BDE8F087000080B586B0AA
:1016E00040F200410068C4F20001002288420592E5
:1016F000CDE903220292019202D006B080BD00BF64
:1017000043F630000092C4F20200036943F0020382
:101710000361036903F002030093009B00920368D6
:1017200043F0010303600068012300F00100009012
:101730000098C020019002200290059001F5FE3033
:1017400001A9CDE90332FEF7D9FD06B080BD000046
:1017500080B590F83E2090F83F3090F842E090F845
:1017600043C004290AD0B9B9012A4FF0010208BFC9
:10177000BEF1010F34D0104680BD00BF012B4FF0E9
:10178000010208BFBCF1010FF5D1022180F83F1022
:1017900080F8431000681EE0012A4FF0010208BFE4
:1017A000012BE8D1BEF1010FE5D1BCF1010FE2D16F
:1017B000022280F83E2080F83F2080F8422080F806
:1017C000432091B10068016A21F001010162016AC0
:1017D00041F00101016210216FF0100209E000BF29
:1017E000022180F83E1080F84210006801216FF05D
:1017F0000102036A1A400262026A1143016201682F
:10180000002241F001010160104680BD90F83C309B
:10181000012B04BF022070474FEAB202032A00F2F4
:10182000ED802DE9F043DFE802F003A3397300BF38
:10183000036800261D6A1A6AC4F2010622F001023A
:101840001A621A465C6852F818CFB3428E68D1F813
:1018500000E025F0020545EA06050CD1CE68D1E985
:10186000057824F4407425F00C0526F004063C436A
:10187000354344EA08042CF0730747EA0E075C601E
:101880009F614F6809695F631D629F6947F00807A0
:101890009F619F6927F004079F61A4E00368002609
:1018A0001D6A1A6AC4F2010622F480721A621A468C
:1018B000D3F804C052F81CEFB3428E680C6825F4CC
:1018C000007545EA06250FD1CE68D1E905983602A4
:1018D00040F2FF4725F44065BE4335432CF44057A2
:1018E00048EA090647EA061C2EF073072743C3F8A7
:1018F00004C0DF614F680969DF631D62DF6947F07B
:101900000807DF61DF6927F00407DF616BE000BFD4
:1019100003680027D3F820C01A6AC4F2010722F432
:1019200080521A621A465C6852F81C5FD1F800E0D7
:101930008E68BB4204D14F6924F4804444EA871482
:101940002CF4005747EA063725F4E64646EA0E2609
:101950005C60DE614E6809691E641F62DF6947F4DE
:101960000067DF61DF6927F48067DF613AE000BF6D
:10197000036800261D6A1A6AC4F2010622F01002EA
:101980001A621A46D3F804C052F8184FB3428E6850
:10199000D1F800E025F0200545EA06150FD1CE6804
:1019A000D1E905986FF0400725F0C00507EA061653
:1019B00035432CF4406748EA090647EA860C24F4CC
:1019C000E64444EA0E27C3F804C09F614F680969E2
:1019D0009F631D629F6947F400679F619F6927F4B9
:1019E00080679F6109021368194311600021BDE8F7
:1019F000F043002280F83C20084670470121002275
:101A000080F83C2008467047002804BF012070473A
:101A100010B5044690F83D0028B9002084F83C0039
:101A2000204600F01FF8022084F83D002068211DA8
:101A300001F024F9012084F8460084F83E0084F87F
:101A40003F0084F8400084F8410084F8420084F8A4
:101A5000430084F8440084F8450084F83D000020E9
:101A600010BD000070470000C1B1042908D008294A
:101A700014BF41224022825C012A05D016E000BF3B
:101A80003F22825C012A11D10222082910D00429A8
:101A900014BF80F8412080F83F200BE090F83E20F2
:101AA000012A03D1022280F83E2003E00120704782
:101AB00080F84020006801F01F010122036A8A407B
:101AC00023EA02010162036A4421C4F201011A43BC
:101AD000A1F144039842026216D040F6FF31C4F2ED
:101AE000000188421ADCB0F1804F28D040F200415A
:101AF000C4F20001884222D040F60001C4F2000185
:101B000088421CD022E000BF0A6842F400420A600A
:101B100040F6FF31C4F200018842E4DD40F60041A6
:101B2000C4F2000188420AD044F20001C4F201016B
:101B3000884204D00021C4F20101884206D18168A4
:101B400001F00701062904BF00207047016841F039
:101B50000101016000207047002804BF0120704788
:101B600010B5044690F8410028B9002084F84000E0
:101B7000204600F021F8242084F841002068C16844
:101B800021F40051C160204601F0F4F82068016999
:101B900021F490410161416921F02A014161C1684C
:101BA00041F40051C16000202021606484F841109C
:101BB00084F84210606310BD80B586B044F20041E5
:101BC0000068C4F20001002288420592CDE9032298
:101BD0000292019202D006B080BD00BF43F63000F1
:101BE0000092C4F20200036943F400330361036905
:101BF00003F400330093009B0092036843F0010359
:101C00000360006800F00100009000980C20019033
:101C10000220CDE90202032004900720059001F57F
:101C2000DE3001A9FEF76AFB06B080BD2DE9F04366
:101C300081B0044690F84100202809D100294FF0D6
:101C4000010018BF002A07D101B0BDE8F08300BF32
:101C5000022001B0BDE8F0830020606421201D4611
:101C60000E4684F841001746FEF71EFCA784E78461
:101C7000A1688146B1F5805F02D1206900285DD05E
:101C800037460020E28C2168002A5DD06A1C24D0EF
:101C9000002D4AD0804600BF0868000608D4FEF731
:101CA00003FCA0EB0900A8427AD82168C868F3E7D2
:101CB00017B117F8010B04E038F8020B00276FF397
:101CC0005F204860E08C0138E084E08C0028E3D19C
:101CD0003AE000BF0A68120609D40A68120606D460
:101CE0000A6812065CBF0A685FEA0262F2D51FB199
:101CF00017F8012B05E000BF30F8022B00276FF327
:101D00005F224A60E28C013AE284E28C002AE4D14C
:101D10001AE000BF30F8022B00276FF35F224A6001
:101D2000E28C013AE284E28C72B10A68120635D57F
:101D3000002FEFD017F8012BF1E700BF0027304646
:101D4000E28C2168002AA1D1086840061ED42DB378
:101D5000681C14D1086840062AD40868400627D4B5
:101D60000868400624D4086840064FF00000F1D50A
:101D70000DE000BF2068C1680068400618D4FEF777
:101D800093FBA0EB0900A842F4D909E00020202130
:101D900084F8411001B0BDE8F08300BFFEF784FB7A
:101DA0000320202184F8411001B0BDE8F08300BF7A
:101DB0000020202184F8411001B0BDE8F08300002C
:101DC000FEE700002DE9F04383B0044600680F46AB
:101DD00001680A9D0B9E41F480719946904601600E
:101DE00020464FF0011100222B46009600F0ACF87F
:101DF00050B120680068C00544BF4FF400702064F3
:101E0000032003B0BDE8F083206807F0FE01016104
:101E10000221C0F2010120462A46334600F07AF939
:101E200020B1012003B0BDE8F08300BF0020029084
:101E300020683246416902918069294602900298E1
:101E4000204600F0D3F958B1206C0428E9D120686D
:101E5000016841F400710160012003B0BDE8F08326
:101E60002068B9F1010F0AD04FEA1821016120461C
:101E70002946324600F0BAF90028E5D120685FFA19
:101E800088F10161002003B0BDE8F08370B50368FC
:101E9000044653F8140F400711D40E46481C29D0AD
:101EA00086BB00BF1868400527D4FEF7FDFA2368FB
:101EB00053F8140F400737D518684007F2D50020B3
:101EC00070BD00BF18684007F9D41868400514D4E5
:101ED00018684007F3D4186840050ED41868400706
:101EE000EDD41868400508D4186840074FF000008A
:101EF00048BF70BD18684005E4D56FF48060186075
:101F0000042012E0154603E053F8140F4007D6D41E
:101F100018684005F1D4FEF7C7FA401B2368B042A9
:101F2000F2D958694007EFD42020002120222163F4
:101F300084F83D2084F83E10226C10432064012078
:101F400084F83C1070BD00002DE9F04105460068A2
:101F50001E46144601F47F0201338FB242D0DDF8F1
:101F60001880B2F5803F40F0878040693840C01B40
:101F7000B0FA80F04009844240F0C8804EB924E0B5
:101F800040693840C01BB0FA80F04009844240F0FC
:101F9000BD80FEF789FAA0EB08012868B142EFD9AD
:101FA00041693940C91BB1FA81F149098C42E7D135
:101FB0009BE000BF40693840C01BB0FA80F0400988
:101FC00084424FF0000040F0A280FEF76DFA2868CE
:101FD00041693940C91BB1FA81F149098C42E9D103
:101FE00083E000BFB2F5803F24D100BF4169394092
:101FF000C91BB1FA81F149098C4240F087804169DF
:102000003940C91BB1FA81F149098C4240F07E8008
:1020100041693940C91BB1FA81F149098C4275D136
:1020200041693940C91BB1FA81F149098C42DDD0BF
:102030006CE000BF81693940C91BB1FA81F14909DF
:102040008C4263D181693940C91BB1FA81F14909D8
:102050008C425BD181693940C91BB1FA81F14909D0
:102060008C4253D181693940C91BB1FA81F14909C8
:102070008C42DFD04AE000BF80693840C01BB0FA14
:1020800080F04009844241D146B923E0806938405C
:10209000C01BB0FA80F04009844237D1FEF704FA41
:1020A000A0EB08012868B142F0D981693940C91B09
:1020B000B1FA81F149098C42E8D116E080693840D3
:1020C000C01BB0FA80F0400984424FF0000018BFF6
:1020D000BDE8F081FEF7E8F9286881693940C91B3D
:1020E000B1FA81F149098C42E8D10020202128630E
:1020F00085F83D1085F83E00296C41F020012964E7
:1021000085F83C000120BDE8F08100BF0020BDE85B
:10211000F0810000F0B581B0044600681D464369B7
:102120008FB203EA0701B94202D1002001B0F0BD2D
:102130004169164601323CD0490512D47EB300BF36
:10214000FEF7B2F9411B2068B14203D94169394019
:10215000B9422BD141693940B942E6D041694905BC
:10216000EED5016841F4007101606FF48061416156
:10217000042000212022216384F83D2084F83E10B1
:10218000226C1043206484F83C10012001B0F0BDA3
:1021900041693940B942C8D041694905E1D4FEF7E7
:1021A00083F9206841693940B942F1D02020E0E745
:1021B00041694905D5D441693940B942B5D0416931
:1021C0004905CED441693940B942AED0416949058B
:1021D000C7D441693940B942A7D041694905C0D443
:1021E00041693940B942E3D19FE7000070B5036807
:1021F000044653F8140F000611D40E46481C29D08B
:1022000086BB00BF1868400527D4FEF74DF9236848
:1022100053F8140F000637D518680006F2D50020D1
:1022200070BD00BF18680006F9D41868400514D4C2
:1022300018680006F3D4186840050ED41868000624
:10224000EDD41868400508D4186800064FF0000067
:1022500048BF70BD18684005E4D56FF48060186011
:10226000042012E0154603E053F8140F0006D6D4FC
:1022700018684005F1D4FEF717F9401B2368B042F7
:10228000F2D958690006EFD42020002120222163D2
:1022900084F83D2084F83E10226C10432064012015
:1022A00084F83C1070BD000080B586B0002043F675
:1022B00030010590CDE90300CDE901000090C4F2A2
:1022C00002010A6842F004020A600A6802F004028D
:1022D0000092009A00900A6842F080020A600A6840
:1022E00002F080020092009A00900A6842F0010217
:1022F0000A600A6802F001020092009A00900A68DF
:1023000042F002020A60096801F00201009100999E
:102310004FF40051CDE901100120039040F6000078
:10232000C4F2020001A9FDF7E9FF06B080BD00007C
:1023300080B540F2200045F20041C2F20000C4F234
:10234000000148F2A06200234FF4804CC0F2010269
:1023500080E80E00C0E9033CC0E90533C0E907335B
:10236000FEF7A8F8002808BF80BDBDE88040FDF753
:10237000ADBF000010B594B040F274000021C2F26D
:1023800000004FF08042632340F2E7340D91CDE925
:102390000B110991CDE90711CDE90511CDE9031123
:1023A000CDE90111C0E90023C0E902140161816196
:1023B000FFF724F8002818BFFDF788FF4FF480507E
:1023C0000A9040F27400C2F200000AA9FFF75CF81C
:1023D000002818BFFDF77AFF40F27400C2F2000037
:1023E000FFF712FB002818BFFDF770FF40F27400E2
:1023F0000024C2F2000008A9CDE90844FEF7B4FFAA
:10240000002818BFFDF762FF6020CDE901040394A6
:10241000059440F27404C2F2000401A9204600228F
:10242000FFF7F4F9002818BFFDF750FF21680020DE
:10243000B1F1804F1390CDE9110010900F9001D0B1
:1024400014B010BD43F630010E90C4F202010A68C8
:1024500042F001020A60096801F001010E910E9933
:1024600020210F910221CDE910101290012013902C
:102470000020C4F202000FA9FDF740FF14B010BD08
:1024800080B58CB040F2BC0040F200420021C2F2A4
:102490000000C4F20002C0E9002103224FF47A7365
:1024A000CDE903210122CDE90011C0E90213016148
:1024B0008161CDE90521CDE90711CDE909210B9114
:1024C00003A9FFF7B1F8002818BFFDF7FFFE40F29F
:1024D000BC00C2F200006946FEF746FF002818BFA4
:1024E000FDF7F4FE0CB080BD80B540F2041044F25C
:1024F0000041C2F20000C4F2000100234FF00C0CB6
:102500004FF4E13280E80E00C0E90333C0E905C3AF
:10251000C361FFF721FB002808BF80BDBDE88040F4
:10252000FDF7D4BEFEE70000FEE700002DE9F04F06
:1025300085B040F20C0640F220044FF00008C2F2D1
:1025400000060A270125C2F200040DF1130A4FF01C
:10255000000B00BF4BF0B00031788DF8100004A8DC
:10256000CDE900052046002201230297FEF75EF91F
:10257000102031788DF811000DF11100CDE9000522
:102580002046002201230297FEF750F931780DF121
:102590001200CDE900052046002201238DF81280AB
:1025A0000297FEF743F94FF0000900BF317820464B
:1025B000402201238DF81380CDE900A50297FEF794
:1025C00035F909F101004FFA80F9B9F1FF3FEDDC6F
:1025D000BBF1070F0BF1010BBCD305B0BDE8F08FC9
:1025E0002DE9F04385B06420FDF774FE40F20C063F
:1025F000C2F2000640F22004AE203178C2F200049C
:102600008DF813000DF113052046002201234FF031
:102610000A0801278DE8A0014FF00009FEF706F92E
:10262000D52031788DF81300204600220123CDE912
:102630000057CDF80880FEF7F9F8802031788DF842
:102640001300204600220123CDE90057CDF8088071
:10265000FEF7ECF8A82031788DF813002046002210
:102660000123CDE90057CDF80880FEF7DFF83F20C1
:1026700031788DF81300204600220123CDE9005760
:10268000CDF80880FEF7D2F8D32031788DF813000A
:10269000204600220123CDE90057CDF80880FEF73F
:1026A000C5F831782046002201238DF81390CDE93A
:1026B0000057CDF80880FEF7B9F831784FF040099F
:1026C0002046002201238DF81390CDE90057CDF864
:1026D0000880FEF7ABF88D2031788DF81300204686
:1026E00000220123CDE90057CDF80880FEF79EF8BF
:1026F000142031788DF81300204600220123CDE903
:102700000057CDF80880FEF791F8202031788DF839
:102710001300204600220123CDE90057CDF80880A0
:10272000FEF784F8022031788DF81300204600224D
:102730000123CDE90057CDF80880FEF777F8A120F6
:1027400031788DF81300204600220123CDE900578F
:10275000CDF80880FEF76AF8C82031788DF81300AC
:10276000204600220123CDE90057CDF80880FEF76E
:102770005DF8DA2031788DF813002046002201231D
:10278000CDE90057CDF80880FEF750F812203178D7
:102790008DF81300204600220123CDE90057CDF823
:1027A0000880FEF743F8812031788DF81300204629
:1027B00000220123CDE90057CDF80880FEF736F856
:1027C000CF2031788DF81300204600220123CDE977
:1027D0000057CDF80880FEF729F8D92031788DF818
:1027E0001300204600220123CDE90057CDF80880D0
:1027F000FEF71CF8F12031788DF8130020460022F6
:102800000123CDE90057CDF80880FEF70FF8DB2053
:1028100031788DF81300204600220123CDE90057BE
:10282000CDF80880FEF702F8317820460022012317
:102830008DF81390CDE90057CDF80880FDF7F6FF2D
:10284000A42031788DF81300204600220123CDE921
:102850000057CDF80880FDF7E9FFA62031788DF804
:102860001300204600220123CDE90057CDF808804F
:10287000FDF7DCFFFFF75AFEAF2031788DF813002B
:10288000204600220123CDE90057CDF80880FDF74E
:10289000CDFF05B0BDE8F083A2F17F0313F15F0F18
:1028A00038BF70472DE9F04F89B0054643F2B85064
:1028B00040F20C09C0F60000C2F2000900EB02175A
:1028C000A1F1500099F8002040F220048DF81C007E
:1028D000012607A8C2F200044FF00A08CDE900065D
:1028E00020460491114600220123CDF80880FDF70F
:1028F0009DFF28091030069099F800108DF81D00F2
:102900000DF11D00CDE90006204600220123CDF87F
:102910000880FDF78BFF05F00F00059099F8001077
:102920008DF81E000DF11E00CDE9000620460022A4
:102930000123CDF80880FDF779FF4FF60060CFF650
:10294000FF70385C99F800108DF822000DF1220B11
:10295000204640220123A7F50075CDE900B6CDF849
:102960000880FDF763FF29796878039199F80010D2
:10297000AF7895F803A08DF822002046402201236D
:10298000CDE900B6CDF80880FDF750FF99F80010AA
:102990002046402201238DF82270CDE900B6CDF803
:1029A0000880FDF743FF99F80010204640220123DC
:1029B0008DF822A0CDE900B6CDF80880FDF736FFEE
:1029C000039899F800108DF8220020464022012338
:1029D000CDE900B6CDF80880FDF728FF687999F8B1
:1029E00000108DF82200204640220123CDE900B6D8
:1029F000CDF80880FDF71AFFA87999F800108DF836
:102A00002200204640220123CDE900B6CDF80880FF
:102A1000FDF70CFFE87999F800108DF822002046A8
:102A200040220123CDE900B6CDF80880FDF7FEFE77
:102A3000049899F800104F388DF81F000DF11F0011
:102A4000CDE90006204600220123CDF80880FDF7DD
:102A5000EDFE069899F800108DF8200008A8CDE941
:102A60000006204600220123CDF80880FDF7DEFE97
:102A7000059899F800108DF821000DF12100CDE99D
:102A80000006204600220123CDF80880FDF7CEFE87
:102A9000287A99F800108DF823000DF123072046BD
:102AA00040220123CDE90076CDF80880FDF7BEFE77
:102AB000687A99F800108DF82300204640220123FF
:102AC000CDE90076CDF80880FDF7B0FEA87A99F838
:102AD00000108DF82300204640220123CDE9007626
:102AE000CDF80880FDF7A2FEE87A99F800108DF87D
:102AF0002300204640220123CDE90076CDF808804E
:102B0000FDF794FE287B99F800108DF823002046ED
:102B100040220123CDE90076CDF80880FDF786FE3E
:102B2000687B99F800108DF823002046402201238D
:102B3000CDE90076CDF80880FDF778FEA87B99F8FE
:102B400000108DF82300204640220123CDE90076B5
:102B5000CDF80880FDF76AFEE87B99F800108DF843
:102B60002300204640220123CDE90076CDF80880DD
:102B7000FDF75CFE09B0BDE8F04F70471378002BFD
:102B800008BF704770B50C460546561EE8B2E1B264
:102B9000DAB2FFF781FE05F10800B37841B2C0F365
:102BA000C01004EB400421EAE175002B06F1010698
:102BB000ECD1BDE8704070477047000070470000DE
:102BC000FEF72EB870B592B006AC20463021FDF766
:102BD00037FB002543F640000595CDE90355CDE9C7
:102BE00001550095C4F202000168022641F08051AF
:102BF0000160006800F080500090009847F20000EB
:102C00000095C4F20000016841F440410160006891
:102C1000642100F4404000900098012006904FF499
:102C2000A02007904FF480000D9004200E9011908A
:102C300020460C96CDE90F16FEF7AAF910B172B630
:102C4000FEE700BF0F20CDE901064FF48050CDE92B
:102C5000040501A803210395FEF788F810B172B6A8
:102C6000FEE700BF12B070BD4EF68850CEF20000F5
:102C7000016841F47001016070470000B0B540F296
:102C8000FF7E0568C4F2000E40F2000C7045C4F2ED
:102C9000010C1DDD40F60003C4F20003984220D071
:102CA00060451ED040F60043C4F20003984218D09D
:102CB0004FF6FF73C4F2000398421DDC704527DC19
:102CC000B0F1804F3CD040F20043C4F2000335E045
:102CD000B0F1804F05D040F20043C4F200039842A7
:102CE000E6D14B6825F0700243EA02054FF6FF7308
:102CF000C4F200039842E1DD44F2FF33C4F2010361
:102D0000984211DC60451BD044F2000314E000BF80
:102D100040F60003C4F20003984211D040F600438D
:102D2000C4F200030AE000BF44F60003C4F201034A
:102D3000984205D044F20043C4F20103984204D102
:102D4000CB6825F4407243EA02050A688C684B6937
:102D50006045C462826202D10969CCF83010026811
:102D600025F0800142F00402194302600122426111
:102D70000160B0BDB0B50446006804F108030ECB95
:102D80000569194325F440552A4302616269E369E4
:102D90001143C268194349F20C639A431143C1605D
:102DA0004169A26921F4407141F20043114340F4AA
:102DB0008062C4F201039A42416103D1FEF79CF89C
:102DC00002E000BFFEF784F8E1694FF69C75636886
:102DD0001922C0F6FF75B1F5004FA0FB02011FD10B
:102DE0005A00DB0FFDF7F4F948F21F51C5F2EB1161
:102DF000A0FB01235A0905F1805302FB0300322393
:102E000003EBC000A0FB01014FF4F87000EA1110C1
:102E100000EB0210C1F34211084421688860B0BD84
:102E20009A009B0FFDF7D4F948F21F51C5F2EB1140
:102E3000A0FB01235A0902FB0500322303EB00101B
:102E4000A0FB0101F02000EA511000EB0210C1F3D9
:102E50004311084421688860B0BD0000FEE700000F
:102E600080B582B0019040F20410C2F2000001A9C6
:102E700001226423FEF7DAFE019802B080BD000053
:102E800084B0FDF7DBFEFFF79DFEFFF70DFAFFF7BD
:102E90002BFB6420FDF71EFA60A000F06FFBFFF72C
:102EA00069FAFFF7EDFAFFF743FA40F27404C2F251
:102EB000000420460021FEF7D7FD40F2BC05C2F217
:102EC000000528463C21FEF743FC5AA000F056FBC3
:102ED00040F22008C2F2000840467821052264230F
:102EE0007826FDF799FB40F21807C2F20007A8B355
:102EF00040F22000C2F200007A21052264237A26E3
:102F0000FDF78AFB60B33878A0BB43F6D730C0F634
:102F1000000000F033FB43F6B530C0F6000000F0CF
:102F20002DFB40F2200A43F698390126C2F2000A2E
:102F3000C0F6000903E000BF01367F2E66D07000A6
:102F400081B2504602220A23FDF766FB0028F3D126
:102F50004846314600F0A8F8EEE700BF3CA000E08C
:102F600046A040F20C01C2F200010E7000F006FB18
:102F700001203870FFF734FB20684FF4FA71416389
:102F800043F60D40C0F6000000F0F8FA387868B358
:102F900043F6274901204CF6CD4AC0F600096E469B
:102FA00004E000BFFDF780FA7860387829680028CF
:102FB000496A2268798089B25163F6D0FDF774FAC4
:102FC0007968401A6528F0D37888494600FB0AF0F2
:102FD000C20C304600F078F898F83D002028E1D186
:102FE000182000213246FFF7C9FDDBE72868216879
:102FF000426A92B24A63426A92B24A63426A92B2A7
:103000004A63426A7A8092B24A63F1E743F6C83073
:10301000C0F6000000F0B2FAB2E700BF0D0A2D2D95
:103020002D20E7B3BBE7BB9FE590AFE58AA8202D35
:103030002D2D0D00E6A380E6B58B2049324320E517
:10304000B18FE5B995E78AB6E680812E2E2E0D0068
:103050004F4C454420E59CA8E7BABF202830783380
:103060004329EFBC8CE5BC80E5A78BE5889DE5A7EF
:103070008BE58C962E2E2E0D000000004F4C454403
:1030800020E59CA8E7BABF20283078334429EFBC5C
:103090008CE5BC80E5A78BE5889DE5A78BE58C9644
:1030A0002E2E2E0D000000000FB4054B10B503A905
:1030B000044A029800F02CF810BC5DF814FB0000E4
:1030C000612E0008000000200FB4084B10B504A9C1
:1030D00002AA039800F01CF8044602A9002000F0A0
:1030E00048FA204610BC5DF814FB00007335000858
:1030F00002E008C8121F08C1002AFAD170477047C1
:10310000002001E001C1121F002AFBD1704700001E
:103110002DE9FF4F8DB00F460546002606E0252815
:103120000BD0DDE90F1290476D1C761C2878002823
:10313000F5D111B03046BDE8F08F0024A246A1467B
:103140000122EC4900E0044315F8013F203B02FA5C
:1031500003F00842F7D128782A2810D06FF02F0208
:103160002878A0F13001092914D80AEB8A0102EB72
:10317000410144F0020400EB010A6D1CF0E701CFAD
:103180005FEA000A03D544F40054CAF1000A44F08F
:1031900002046D1C28782E2817D115F8010F44F071
:1031A00004042A280ED06FF02F022878A0F13001F5
:1031B00009290AD809EB890102EB410100EB010959
:1031C0006D1CF2E757F8049B6D1C28786C280FD013
:1031D00006DC4C2817D068280DD06A2814D104E0EA
:1031E000742810D07A280FD10DE044F400140AE0BE
:1031F00044F4801401E044F440146978814202D11F
:1032000004F580146D1C6D1C2A786E2A1FD00CDC0E
:10321000632A31D004DC002A8BD0582A11D1A3E0D4
:10322000642A68D0692A0CD165E0732A2ED004DCA8
:103230006F2A73D0702A04D19BE0752A6FD0782A48
:103240006ED01046DDE90F129047761C50E1C4F3B2
:103250000250022806D0032809D0042801CF09D043
:10326000066045E101CFF117C0E9006140E101CFFF
:1032700006803DE106703BE117F8040B8DF8000075
:1032800000208DF80100EB46012003E057F804BB55
:103290004FF0FF3061074FF0000102D40DE008F15C
:1032A0000101884649450FDA8045F8DB1BF8081014
:1032B0000029F4D108E008F1010188468142FADBD7
:1032C0001BF808100029F6D1DDE90F23AAEB08004E
:1032D0008146214600F036F9304400EB080604E050
:1032E000DDE90F121BF8010B9047B8F10108F7D286
:1032F00021464846F7E00A21C4F302534FF0000B81
:103300000891022B04D001CFC117032B09D00AE08A
:10331000FF1D27F00707F7E8020108E032E01FE091
:1033200020E000B2C117042B01D140B2C117031E27
:1033300071F1000307DA4FF0000CD0EB0C006CEBDE
:1033400001012D2302E0230504D52B238DF8243021
:10335000012303E0E30701D02023F7E7984658E074
:103360000A2110E010210EE010204FF0000B089011
:103370000CE010214FF0000B44F004044FF008095A
:10338000089103E008214FF0000B0891C4F30253A9
:10339000022B04D001CF0021032B06D006E0FF1D35
:1033A00027F00707F7E8020103E080B2042B00D101
:1033B000C0B24FF0000823072BD5702A07D0DDF8E4
:1033C00020C08CF0100C5CEA0B0C05D00EE0402302
:1033D0008DF82430012308E050EA010306D03023A1
:1033E0008DF824308DF8252002239846DDF820C082
:1033F0008CF0080C5CEA0B0C0BD150EA010301D1F4
:10340000630706D530238DF824304FF00108A9F169
:103410000109582A04D038A20B9208AA0A920BE09C
:103420003AA2F9E75B46089AFCF7D2FE0B9B9B5C3D
:103430000A9A521E0A92137050EA0102F2D10A98B7
:10344000ADEB000000F1200B600702D524F48034BE
:1034500001E04FF00109D94502DDA9EB0B0000E0C6
:10346000002000EB0B0141440890AAEB010AE003A5
:1034700006D4DDE90F232146504600F063F80644E8
:103480004FF0000908E009A911F80900DDE90F1261
:10349000904709F10109761CC145F4DBE0030CD526
:1034A000DDE90F232146504600F04CF8064404E0C5
:1034B000DDE90F1230209047761C0899481E0890CD
:1034C0000029F5DC08E00A980A990078491C0A915D
:1034D000DDE90F129047761CBBF10001ABF1010B47
:1034E000F1DC21465046DDE90F2300F019F80644CF
:1034F0006D1C1BE609280100303132333435363774
:10350000383961626364656600000000303132332F
:1035100034353637383941424344454600000000CF
:103520002DE9F041044600251E461746880404D4C0
:1035300005E039462020B0476D1C641EF9D52846A9
:10354000BDE8F0812DE9F041044600251E46904675
:10355000C80301D5302700E02027880404D505E002
:1035600041463846B0476D1C641EF9D52846BDE873
:10357000F0810A68531C0B601070704710B5044648
:1035800001E0FFF76DFC14F8010B04490028F8D1A5
:10359000BDE810400A20FFF763BC000000000020D7
:1035A00000000000000000000102030406070809F3
:1035B0000000000001020304000000000000000001
:1035C0000000000000000000000000BE000000003D
:1035D00000000007000000000000070007000000D6
:1035E00000000000000000000024FF24FF24000071
:1035F00000041F041F04000000242AFF2A120000F8
:103600000008151F1504000000C628100846000019
:10361000000C0201020C000000708850205088004D
:10362000000E11110E111100000000070000000033
:1036300000000000000000000000F00E010000008B
:1036400000000F70800000000000010EF00000007C
:10365000000080700F000000004428F028440000A3
:1036600000000001000000000010107C101000009D
:103670000001010101010000000000000000000045
:1036800000000080700000000010101010100000FA
:10369000000000000000000000000000000000002A
:1036A000000000606000000000000080601C03005B
:1036B00000C038070100000000E010080810E0001A
:1036C000000F102020100F0000001010FF0000005D
:1036D000000000003F00000000100808088870008B
:1036E0000030282422213000000808888848300053
:1036F0000018202020110E000000C02010FF000044
:1037000000070404043F040000F8888888080800C3
:103710000019212121110E0000E0108888180000F6
:10372000000F112020110E000008080808C83800FA
:103730000000003C0300000000708808088870004A
:10374000000E112020110E00007088080810E00003
:103750000000182121110F00000000C0C00000006F
:103760000000003030000000000000C0C000000079
:10377000000000B070000000000080402010080031
:103780000001020408102000002424242424240022
:10379000000101010101010000081020408000002B
:1037A00000201008040201000000080888483000CA
:1037B000000000370800000000708808080830008A
:1037C000000E3141414E000000008070800000007A
:1037D000003F0404043F000000FF898989897600C6
:1037E000003F242424241B000070880808081000CF
:1037F000000E11202020110000FF01010102FC0039
:10380000003F202020100F0000FF8989890101005E
:10381000003F24242420200000FF89898901010021
:10382000003F040404000000007088080888F000CD
:10383000000E112020111F0000FF08080808FF00DB
:10384000003F010101013F00000001FF01000000F5
:103850000000203F200000000000000101FE0000E9
:10386000001C2020201F000000FF102844820000C0
:10387000003F02050810200000FF000000000000CB
:10388000003F202020202000FF020402FF00000053
:103890003F0000003F000000FF040810FF00000090
:1038A0003F0000003F00000000708808088870009A
:1038B000000E112020110E0000FF888888887000FB
:1038C000003F0404040403000070880808887000A6
:1038D000000E112030112E0000FF888888887700A4
:1038E000003F040404043B000070888888880800B6
:1038F0000010212121211E00000101FF0101000013
:103900000000003F0000000000FE01010101FE0078
:10391000001F202020201F0000FC020102FC0000EC
:103920000007182018070000FF01010E0101FF0029
:103930001F20201E20201F0000C3241824C30000C5
:103940000021120C12210000000708F008070000F7
:103950000000003F000000000001814121110F0024
:10396000003C2221202020000000FF010100000077
:103970000000FF808000000000031C608000000049
:103980000000010738C0000000080402040800001D
:103990000000000000000000000000000000000027
:1039A0000080808080808000000001020400000010
:1039B0000000000000000000000040A8A8A8F000DF
:1039C0000018242424143F0000FF88888870000019
:1039D000003F2424241800000070888888200000FC
:1039E00000182424241400000070888888FF000038
:1039F00000182424243F00000070A8A8A8B00000EC
:103A000000182424241800000008FF090100000009
:103A100000003F04040000000070888888780000DF
:103A2000001C2222221F000000FF080808F00000EE
:103A3000003F0101013F0000000088FD0000000080
:103A40000000203D2000000000000088FD00000074
:103A5000004080807D00000000FF102844800000AE
:103A6000003F020508100000000001FF00000000F8
:103A70000000003F2000000000FE023C02FE0000AB
:103A8000003F003F003F000000FE080808F0000073
:103A9000003F0101013F000000708888887000002D
:103AA000001824242418000000FE080808700000F4
:103AB00000FF1414140800000070080808FE00003D
:103AC0000008141414FF000000FE0808080000009D
:103AD000003F0101010000000070A8A8A81000002C
:103AE00000082525251D000000087F0808000000AB
:103AF00000001F202000000000FE010101FE000068
:103B0000001F2020203F000000FC020102FC0000FA
:103B1000000718201807000000FE010E01FE00003B
:103B2000003F201C203F000000C6281028C60000CF
:103B300000310A040A310000000E010101FE0000FC
:103B400000008080807F00000001894929190F0052
:103B5000003C2422212030000000087F810000006A
:103B60000000001F20200000000000FE00000000F8
:103B70000000003F000000000000817F08000000FE
:103B80000020201F000000000002010201000000D0
:103B9000000000000000000049324320646576699F
:103BA000636520666F756E642061742030782530FF
:103BB00032580D0A005374617274204932432073E5
:103BC00063616E2E2E2E0D00493243207363616EA9
:103BD00020646F6E650D00E99499E8AFAF3A20E676
:103BE00089BEE4B88DE588B0204F4C454420E5B14E
:103BF0008FE5B995EFBC81E8AFB7E6A380E69FA556
:103C0000205042362F504237E380820D00E7B3BB8D
:103C1000E7BB9FE8BF9BE585A5E4B8BBE5BEAAE787
:103C20008EAFE380820D002530336420252500000F
:103C3000503C00080000002018000000F030000890
:103C4000683C00081800002038050000003100081A
:103C500000000000010000001000000078000000DB
:083C60000024F4000000000044
:040000050800019955
:00000001FF
